:020000040800F2
:1000000000000220352500088922000891220008FE
:1000100099220008A1220008A9220008000000007F
:10002000000000000000000000000000B1220008F5
:10003000BF22000800000000CD220008DD220008D9
:1000400085250008852500088525000885250008E8
:100050008525000885250008F92200088525000867
:1000600085250008852500088525000885250008C8
:1000700085250008852500088525000885250008B8
:1000800085250008852500088525000885250008A8
:100090000923000885250008852500088525000816
:1000A0008525000885250008852500088525000888
:1000B0008525000885250008852500088525000878
:1000C0008525000885250008852500088525000868
:1000D000852500088525000885250008B52300082A
:1000E0008525000885250008852500088525000848
:1000F0008525000885250008852500088525000838
:100100008525000885250008852500088525000827
:100110008525000885250008852500088525000817
:10012000D5230008852500088525000885250008B9
:10013000852500080000000000000000852500085B
:10014000E923000885250008852500088525000885
:1001500085250008852500088525000885250008D7
:1001600085250008852500088525000885250008C7
:10017000852500088525000800000000000000001B
:08018000852500088525000813
:1001900010B5054C237833B9044B13B10448AFF3C1
:1001A00000800123237010BD6000002000000000CB
:1001B000546D000808B5034B1BB103490348AFF366
:1001C000008008BD0000000064000020546D00089D
:1001D00001F0FF01102A2BDB10F0070F08D010F8F8
:1001E000013B013A8B422DD010F0070F42B3F6D1FC
:1001F000F0B441EA012141EA014122F007047FF015
:1002000000070023F0E80256083C85EA010586EA6B
:10021000010685FA47F5A3FA87F586FA47F6A5FAA7
:1002200087F68EB9EED1F0BC01F0FF0102F00702B3
:1002300032B110F8013B013A83EA010313B1F8D15E
:100240000020704701387047002D06BF354603383F
:10025000073815F0010F07D1013015F4807F02BF78
:10026000013015F4C03F0130F0BC0138704700BFC9
:1002700053B94AB9002908BF00281CBF4FF0FF310D
:100280004FF0FF3000F088B9ADF1080C6DE904CEF5
:1002900000F006F8DDF804E0DDE9022304B0704761
:1002A0002DE9F047089D0F4604468C46002B48D1A7
:1002B0008A42164661D9B2FA82F34BB1C3F12002E9
:1002C00001FA03FC20FA02F29E4042EA0C0C9C4028
:1002D0004FEA164EB7B2BCFBFEF1220C0EFB11CC5E
:1002E00042EA0C4201FB07F0904209D9B21801F131
:1002F000FF3C80F0EE80904240F2EB8002393244C5
:10030000121AA4B2B2FBFEF00EFB102244EA024421
:1003100000FB07F7A74209D9341900F1FF3280F03A
:10032000DA80A74240F2D7803444023840EA0140E4
:10033000E41B00211DB1DC400023C5E90043BDE8FA
:10034000F0878B4206D90DB1C5E9000100210846AE
:10035000BDE8F087B3FA83F1002948D1BB4202D34C
:10036000824200F20781841A67EB0302012094465F
:10037000002DE4D0C5E9004CE1E7002A00F09280AE
:10038000B2FA82F3002B40F0A8808A1A4FEA164E88
:100390001FFA86FC0121200CB2FBFEF70EFB172290
:1003A00040EA02420CFB07F0904207D9B21807F16D
:1003B000FF3802D2904200F2E2804746121AA4B2FD
:1003C000B2FBFEF00EFB102244EA02440CFB00FCE0
:1003D000A44507D9341900F1FF3202D2A44500F236
:1003E000CB801046A4EB0C0440EA0740A2E7C1F121
:1003F00020068B4022FA06FC4CEA030C07FA01F4B3
:1004000020FA06F3F7404FEA1C49234300FA01F8AB
:100410001FFA8CFEB7FBF9F01C0C09FB107744EABD
:10042000074400FB0EF7A74202FA01F20AD91CEBBF
:10043000040400F1FF3A80F09B80A74240F29880CC
:1004400002386444E41B9FB2B4FBF9F309FB134484
:1004500047EA044403FB0EFEA64509D91CEB04043D
:1004600003F1FF3780F08280A6457FD9023B6444C8
:1004700043EA0040A4EB0E04A0FB02E7BC42734633
:10048000B94663D360D05DB1B8EB030264EB0904F5
:1004900004FA06F622FA01F31E43CC40C5E90064D3
:1004A00000214CE76208480842EAC1710B0C43EA9C
:1004B00000438AB242EA0342B3FBF6F1E407B446D2
:1004C0003746B6461F23B0FBF6F0D21B41EA004187
:1004D00061E7614614E7104628E7C3F1200120FADE
:1004E00001F29E4027FA01F19F403A434FEA164E2F
:1004F0001FFA86FCB1FBFEF70EFB1710110C41EA48
:10050000004107FB0CF8884504FA03F43AD9711846
:1005100007F1FF3001D288451FD8A1EB0801B1FBDC
:10052000FEF808FB0CF70EFB181192B242EA0142EA
:10053000BA422FD2B21808F1FF31C6D2BA42C4D2A1
:10054000A8F102013244C0E7F0459CD2BEEB0203A1
:1005500067EB0C070138B94695E7A6EB080841445C
:10056000B81EB1FBFEF808FB0CF7DCE73B467FE763
:10057000504667E70846FBE63444023832E7023F5C
:1005800032441BE7A1EB08013846B1FBFEF808FB3B
:100590000CF7C8E7414698E7704700BF80B58CB0BC
:1005A00000AF414B1B7987F82F303F4B5B7987F8C1
:1005B0002E3097F82F30012B35D197F82E30232B82
:1005C00031D13A4B1B689BB2C3F30A03BB850F239F
:1005D0003B77FF237B77F023BB776223FB7797F88A
:1005E0002F3087F8203097F82E3087F82130BB8DD8
:1005F0001B0A9BB2DBB287F82230BB8DDBB287F8D7
:100600002330F02387F82430002387F825300F2388
:1006100087F8263007F11C014FF0FF330B222448E6
:1006200004F0CCFE3CE097F82F30012B2BD197F84B
:100630002E30242B27D11F4B1B887B850F233B7427
:10064000FF237B74F023BB746223FB7497F82F3075
:100650003B7597F82E307B757B8D1B0A9BB2DBB206
:10066000BB757B8DDBB2FB75F0233B7600237B767D
:100670000F23BB7607F110014FF0FF330B220C481C
:1006800004F09CFE0CE00C4A3B1D07CA03C31A7021
:10069000391D4FF0FF330922054804F08FFE00BFDB
:1006A00000BF3037BD4680BD80060020BC0500205D
:1006B00074050020841600206C6D000880B58CB095
:1006C00000AF584B1B7987F82F3097F82F30012B4C
:1006D00042D101F0BFFFB862BB6A1B0EDAB2524BC7
:1006E0001A70BB6A1B0CDAB24F4B5A70BB6A1B0AFA
:1006F000DAB24D4B9A70BB6ADAB24B4BDA700F2309
:100700003B77FF237B77F023BB776723FB770123BE
:1007100087F82030444B1B7887F82130424B5B78B8
:1007200087F82230404B9B7887F823303E4BDB78AC
:1007300087F82430F02387F82530002387F8263007
:100740000F2387F8273007F11C014FF0FF330C22ED
:10075000364804F033FE60E097F82F30022B5CD16E
:10076000304B5B793B762F4B9B797B762D4BDB793E
:10077000BB762C4B1B7AFB762B4B1A782A4B5B787B
:100780005340DBB23B75284B5A78274B9B78134478
:10079000DBB27B75244B9A78234BDB785340DBB27A
:1007A000BB75214BDA78204B1B781344DBB2FB7509
:1007B0003A7E3B7D9A4224D17A7E7B7D9A4220D13B
:1007C000BA7EBB7D9A421CD1FA7EFB7D9A4218D13B
:1007D00001220121164804F0B1F8164B01221A70CB
:1007E000154A07F10C0392E8030083E8030007F1C0
:1007F0000C014FF0FF3308220C4804F0DFFD00BF6E
:100800000BE00E4A3B4607CA03C31A7039464FF045
:10081000FF330922054804F0D1FD00BF3037BD4643
:1008200080BD00BF800600207C00002074050020F1
:100830000004024080000020786D0008806D0008F0
:1008400080B58AB000AF2F4B1B7987F827302D4B2E
:100850005B7987F826302C4B1B78002B0ED12B4A66
:1008600007F1180307CA03C31A7007F118014FF004
:10087000FF330922264804F0A1FD40E097F8273015
:10088000012B30D197F82630232B2CD11D4B9B798F
:100890001BB21B021AB21B4BDB791BB213431BB2F8
:1008A000BB84BB8CC3F30A031A4A13600F233B7348
:1008B000FF237B73F023BB736E23FB7397F8273002
:1008C0003B7497F826307B74F023BB740023FB74D1
:1008D0000F233B7507F10C014FF0FF3309220C4841
:1008E00004F06CFD0BE00C4A3B4607CA03C31A70C8
:1008F00039464FF0FF330922054804F05FFD2837E1
:10090000BD4680BD80060020800000208C6D000860
:1009100074050020BC050020986D000880B584B0E7
:1009200000AF0346FB710723FB601FE00022082194
:10093000124804F003F8FA79FB6842FA03F303F073
:100940000103002B05D0012280210D4803F0F6FFA2
:1009500004E0002280210A4803F0F0FF0122082170
:10096000064803F0EBFFFB68013BFB60FB68002BD4
:10097000DCDA00BF00BF1037BD4680BD0004024076
:100980000000024080B582B000AF0346FB71002238
:1009900080210B4803F0D2FF00224FF480710848F9
:1009A00003F0CCFFFB791846FFF7B8FF0122802146
:1009B000034803F0C3FF00BF0837BD4680BD00BF3A
:1009C0000004024080B582B000AF0346FB710022F4
:1009D00080210B4803F0B2FF01224FF480710848D8
:1009E00003F0ACFFFB791846FFF798FF0122802146
:1009F000034803F0A3FF00BF0837BD4680BD00BF1A
:100A00000004024090B583B000AF0446084611468A
:100A10001A462346FB800346BB800B467B80134669
:100A20003B802A20FFF7AEFFFB881B0A9BB2DBB29C
:100A30001846FFF7C7FFFB88DBB21846FFF7C2FF77
:100A40007B881B0A9BB2DBB21846FFF7BBFF7B8893
:100A5000DBB21846FFF7B6FF2B20FFF793FFBB88EA
:100A60001B0A9BB2DBB21846FFF7ACFFBB88DBB2B8
:100A70001846FFF7A7FF3B881B0A9BB2DBB218465C
:100A8000FFF7A0FF3B88DBB21846FFF79BFF2C2047
:100A9000FFF778FF00BF0C37BD4690BD80B588B02A
:100AA00000AF07F10C0300221A605A609A60DA6006
:100AB0001A610023BB602E4B1B6B2D4A43F00103D0
:100AC00013632B4B1B6B03F00103BB60BB6800235C
:100AD0007B60274B1B6B264A43F002031363244BB6
:100AE0001B6B03F002037B607B688023FB600123A8
:100AF0003B610223BB6100237B6107F10C031946B4
:100B00001C4803F067FD4FF4C473FB600223BB6114
:100B100007F10C031946184803F05CFD4023FB6005
:100B20000023BB6101237B6107F10C0319461248C6
:100B300003F050FD012280210F4803F0FFFE002248
:100B400008210D4803F0FAFE00228021094803F035
:100B5000F5FE01224FF48071074803F0EFFE0122F9
:100B60004021054803F0EAFE00BF2037BD4680BDA6
:100B700000380240000002400004024080B500AF8F
:100B8000FFF78CFF0120FFF7FDFE962001F06EFDC0
:100B90001120FFF7F7FE962001F068FDCF20FFF748
:100BA000F1FE0020FFF70EFFC120FFF70BFF302002
:100BB000FFF708FFED20FFF7E5FE6420FFF702FFD7
:100BC0000320FFF7FFFE1220FFF7FCFE8120FFF756
:100BD000F9FEE820FFF7D6FE8520FFF7F3FE0020A0
:100BE000FFF7F0FE7820FFF7EDFECB20FFF7CAFEFF
:100BF0003920FFF7E7FE2C20FFF7E4FE0020FFF787
:100C0000E1FE3420FFF7DEFE0220FFF7DBFEF720D7
:100C1000FFF7B8FE2020FFF7D5FEEA20FFF7B2FE6F
:100C20000020FFF7CFFE0020FFF7CCFEC020FFF72B
:100C3000A9FE2320FFF7C6FEC120FFF7A3FE102068
:100C4000FFF7C0FEC520FFF79DFE3E20FFF7BAFE6E
:100C50002820FFF7B7FEC720FFF794FE8620FFF796
:100C6000B1FE3620FFF78EFE2020FFF7ABFE2120DD
:100C7000FFF788FE3A20FFF785FE5520FFF7A2FE1A
:100C8000B120FFF77FFE0020FFF79CFE1820FFF742
:100C900099FEB620FFF776FE0820FFF793FE82202C
:100CA000FFF790FE2720FFF78DFEF220FFF76AFE88
:100CB0000020FFF787FE2620FFF764FE0120FFF7E4
:100CC00081FEE020FFF75EFE0F20FFF77BFE312064
:100CD000FFF778FE2B20FFF775FE0C20FFF772FE62
:100CE0000E20FFF76FFE0820FFF76CFE4E20FFF787
:100CF00069FEF120FFF766FE3720FFF763FE07204D
:100D0000FFF760FE1020FFF75DFE0320FFF75AFE9D
:100D10000E20FFF757FE0920FFF754FE0020FFF7D3
:100D200051FEE120FFF72EFE0020FFF74BFE0E20C4
:100D3000FFF748FE1420FFF745FE0320FFF742FEB1
:100D40001120FFF73FFE0720FFF73CFE3120FFF7A1
:100D500039FEC120FFF736FE4820FFF733FE08209A
:100D6000FFF730FE0F20FFF72DFE0C20FFF72AFEC5
:100D70003120FFF727FE3620FFF724FE0F20FFF774
:100D800021FE1120FFF7FEFD782001F06FFC2920E5
:100D9000FFF7F8FD142001F069FC002000F002F8D4
:100DA00000BF80BD80B584B000AF0346FB8040F239
:100DB0003F13EF2200210020FFF724FE00228021B4
:100DC000134803F0BBFD01224FF48071104803F07B
:100DD000B5FD0023FB600EE0FB881B0A9BB2DBB273
:100DE0001846FFF79BFDFB88DBB21846FFF796FD20
:100DF000FB680133FB60FB68B3F5963FECD301223F
:100E00008021034803F09AFD00BF1037BD4680BD26
:100E10000004024090B585B000AF04460846114674
:100E20001A462346FB800346BB800B467B80134655
:100E30003B80FA887B8813449BB2013B9CB2BA8802
:100E40003B8813449BB2013B9BB2B988F888224689
:100E5000FFF7D8FD00228021154803F06FFD012225
:100E60004FF48071124803F069FD0023FB600EE02F
:100E70003B8C1B0A9BB2DBB21846FFF74FFD3B8C45
:100E8000DBB21846FFF74AFDFB680133FB607B8845
:100E90003A8802FB03F3FA689A42E9D301228021DF
:100EA000034803F04BFD00BF1437BD4690BD00BFA3
:100EB0000004024090B587B000AF044608461146D2
:100EC0001A462346FB800346BB800B46FB70134645
:100ED0003B80FB781F2B02D9FB787A2B01D920238A
:100EE000FB70FB78A3F1200213469B0013443E4A9B
:100EF00013443B6197F82C309BB21A4652001344BE
:100F00005B009AB2FB8813449BB2013B9CB297F8FA
:100F10002C309BB21A46D200D31A9AB2BB88134423
:100F20009BB2013B9BB2B988F8882246FFF76AFD65
:100F3000002280212D4803F001FD01224FF4807131
:100F40002A4803F0FBFC0023FB753CE00023BB7543
:100F50002DE0BA7D97F82C30B2FBF3F3FB73FA7DEA
:100F600097F82C30B2FBF3F3BB733B8DBB82FB7B5A
:100F7000042B0DD8FB7B3A6913441B781A46BB7BC4
:100F800042FA03F303F00103002B01D03B88BB823C
:100F9000BB8A1B0A9BB2DBB21846FFF7BFFCBB8AB9
:100FA000DBB21846FFF7BAFCBB7D0133BB75B97DD8
:100FB00097F82C2013465B0013445B009942C8DB72
:100FC000FB7D0133FB75F97D97F82C201346DB0080
:100FD0009B1A9942BADB01228021044803F0AEFC3F
:100FE00000BF1C37BD4690BDD86F0008000402400A
:100FF00090B587B002AFBA601A460346FB810B4634
:10100000BB811346FB801AE0BB681A78FC88B9895B
:10101000F88997F8243001933B8C00932346FFF71F
:1010200049FF97F824309BB21A46520013445B00E4
:101030009AB2FB891344FB81BB680133BB60BB6878
:101040001B78002BE0D100BF00BF1437BD4690BD18
:1010500080B582B002AF0F2300931423F022002149
:101060000020FFF7D7FE022301930F2300934FF6D2
:10107000E073444A04210420FFF7BAFF0F230093D2
:101080001023F02218210020FFF7C4FE0223019351
:101090000F23009340F2FF733B4A18210020FFF713
:1010A000A7FF002300931023F02228210020FFF740
:1010B000B1FE01230193002300934FF6FF73334ADF
:1010C00028210020FFF794FF0123019300230093C0
:1010D0004FF6FF732E4A30210020FFF789FF0F23C0
:1010E00000931023F02240210020FFF793FE0223FB
:1010F00001930F2300934FF4FC63264A4021002004
:10110000FFF776FF002300932023F02250210020D8
:10111000FFF780FE01230193002300934FF6FF7336
:101120001D4A50210020FFF763FF01230193002394
:1011300000934FF6FF73194A58210020FFF758FF1C
:1011400002230193002300934FF6FF73144A60219A
:101150000020FFF74DFF00230093C823F0227821E1
:101160000020FFF757FE022301930023009340F273
:10117000FF730C4A78210020FFF73AFF00BFBD46FD
:1011800080BD00BFA46D0008B46D0008C86D0008E4
:10119000E86D0008086E00081C6E00083C6E000830
:1011A0005C6E00086C6E0008F0B595B006AF0346A3
:1011B0003960FB71FB79002B3FD13B681B789C4663
:1011C0003B6801331B789E463B6802331B781A4606
:1011D0003B6803331B7819463B6804331B781C4675
:1011E0003B6805331B781D463B6806331B781E465B
:1011F0003B6807331B7807F10C00059304960395B1
:10120000029401910092734662462D4905F0F2F86E
:10121000002300930823F02228210020FFF7FAFD85
:1012200007F10C0201230193002300934FF6FF7393
:1012300028210020FFF7DCFE3EE03B681B789C463F
:101240003B6801331B789E463B6802331B781A4685
:101250003B6803331B7819463B6804331B781C46F4
:101260003B6805331B781D463B6806331B781E46DA
:101270003B6807331B7807F10C0005930496039530
:10128000029401910092734662460E4905F0B2F84D
:10129000002300930823F02230210020FFF7BAFD3D
:1012A00007F10C0201230193002300934FF6FF7313
:1012B00030210020FFF79CFE00BF3C37BD46F0BD4B
:1012C000846E0008B46E0008F0B595B006AF3960C2
:1012D00011461A460346FB710B46BB7113467B71E0
:1012E000FB79002B3FD03B681B789C463B68013361
:1012F0001B789E463B6802331B781A463B680333D3
:101300001B7819463B6804331B781C463B68053341
:101310001B781D463B6806331B781E463B68073327
:101320001B7807F10C000593049603950294019134
:10133000009273466246404905F05CF80023009332
:101340000823F02250210020FFF764FD07F10C0272
:1013500001230193002300934FF6FF7350210020D7
:10136000FFF746FE64E03B681B789C463B68013310
:101370001B789E463B6802331B781A463B68033352
:101380001B7819463B6804331B781C463B680533C1
:101390001B781D463B6806331B781E463B680733A7
:1013A0001B7807F10C0005930496039502940191B4
:1013B000009273466246214905F01CF80023009311
:1013C0000823F02258210020FFF724FD07F10C022A
:1013D00001230193002300934FF6FF73582100204F
:1013E000FFF706FEBA797B79002B01D0144B00E0A1
:1013F000144B07F10C00144904F0FCFF0023009388
:101400001023F02260210020FFF704FD7B79002BE0
:1014100002D04FF4FC6301E04FF4784307F10C0273
:10142000022101910021009160210020FFF7E0FDE1
:1014300000BF3C37BD46F0BDE46E0008146F0008E5
:10144000446F0008486F00084C6F0008F0B595B075
:1014500006AF78607B681B789C467B6801331B78FD
:101460009E467B6802331B781A467B6803331B78E1
:1014700019467B6804331B781C467B6805331B7850
:101480001D467B6806331B781E467B6807331B7836
:1014900007F10800059304960395029401910092C8
:1014A000734662463B4904F0A5FF3B4B1B78162B65
:1014B0002BD8394B1B781A462C2302FB03F3374AEF
:1014C000134407F108021146184604F0E9FF324BB5
:1014D0001B7811339BB2DB0099B22F4B1B781A4655
:1014E0002C2302FB03F32D4A1A440123019300230A
:1014F00000934FF6FF730020FFF77AFD264B1B7811
:101500000133DAB2244B1A703FE000237B6327E0FB
:101510007B6B2C2202FB03F3204A1A447B6B0133C2
:101520002C2101FB03F31D490B441946104604F01E
:10153000B7FF7B6B11339BB2DB0099B27B6B2C2224
:1015400002FB03F3154A1A4401230193002300937D
:101550004FF6FF730020FFF74BFD7B6B01337B637E
:101560007B6B152BD4DD07F1080319460C4804F0FA
:1015700097FF01230193002300934FF6FF73084A5E
:101580004FF49C710020FFF733FD00BF3C37BD4690
:10159000F0BD00BF5C6F00087804002084000020CC
:1015A0004C04002080B584B000AF0023FB810023F1
:1015B000BB8100F0E9FF00F0B3F900F023FB00F07D
:1015C00001FB00F069FA00F09DFA00F0D1FA00F09A
:1015D00011FAFFF7D3FAFFF73BFD00F08FFB00F0A5
:1015E000BFFBA34B1B68DA68A14B1B6842F02002CB
:1015F000DA6001229F49A04801F0A0F801F02AF822
:1016000003469E4A136001F025F803469C4A136086
:1016100001F020F8B8609A4B1B68BA68D31A132BF4
:101620005DD9974ABB681360964B1B785A1CD1B2A0
:10163000944A1170944A1370944B1A78924B5A70D2
:10164000904B1A78924BA3FB0213D9080B469B00D0
:101650000B445B00D31ADBB2002B05D18B4B1B78FC
:101660000133DAB2894B1A70874B00229A70864B8D
:101670000022DA70844B00221A71834B00225A71C7
:101680000621814800F09AFB03461A467E4B9A7168
:10169000804B1B785A1CD1B27E4A11707A4AD371A2
:1016A0007C4B1B780E2B02D97A4B00221A707A4B96
:1016B000A2221A60784B00229A60774B0022DA60EF
:1016C000754B08221A61754B6F4A7349744801F0D3
:1016D0001BFE002300226C490120FFF7F5FD674B3C
:1016E0001B68BA68D31A312B43D9644ABB681360AC
:1016F0006C4B1A786C4B1A706C4B1A786A4B5A7098
:10170000684B1A78694B1B781344DAB2664B9A70AF
:10171000654B0022DA70644B00221A71624B002282
:101720005A710621604800F049FB03461A465E4B99
:101730009A715D4B0022DA715D4B12221A605C4B8C
:1017400000229A605A4B0022DA60594B08221A6133
:10175000584B554A5649584801F0D6FD5249012088
:10176000FFF722FD524B1B689BB24F49184600F011
:101770008DFB524B1B78DBB2002B06D04F4B002267
:101780001A704F490020FFF70FFD4E4B1B78DBB25C
:10179000002B05D04B4B00221A704B48FFF756FE2A
:1017A0004A4B1B78DBB2002B0AD0484B00221A7040
:1017B000474B1A78474B1B7847490020FFF784FDB9
:1017C0000221464803F0A2F80346002B17D114204B
:1017D00000F0C0FB424800F03FFB00BF02213F4841
:1017E00003F094F80346002BF8D000F087FA00F0DD
:1017F000B7FA3C4800F030FB142000F0ABFB3A4B4A
:101800001B88062B7FF604AF384B1B780F2B7FF419
:10181000FFAE364B5B78FF2B7FF4FAAE334B9B78F1
:10182000F02B7FF4F5AE304B1B88033B2F4AD35C83
:10183000F02B7FF4EDAE2C4B1B88023B2B4AD35C84
:10184000002B7FF4E5AE284B1B88013B274AD35C75
:101850000F2B7FF4DDAE254BDB78FB71FB792E2B54
:101860004CD02E2B4DDC222B42D0272B43D048E0EE
:1018700074050020841600207C040020B01600208F
:10188000B4160020DE16002098160020000000206C
:10189000CDCCCCCCAE160020180600207806002057
:1018A0004C050020AC16002088160020AD16002044
:1018B000BC0500207406002024050020C41600206A
:1018C000C8160020B8160020BC160020D016002034
:1018D000DC160020DD160020D41600200000024097
:1018E000906F0008986F00087C060020800600209A
:1018F000FEF754FE06E0FEF7E1FE03E0FEF7A0FF70
:1019000000E000BF4FF480520021034804F094FD32
:10191000024B00221A807BE6800600207C06002015
:1019200080B594B000AF07F12003302200211846A3
:1019300004F082FD07F10C0300221A605A609A60DD
:10194000DA601A610023BB60284B1B6C274A43F006
:1019500080531364254B1B6C03F08053BB60BB6842
:1019600000237B60224B1B68214A43F480431360B1
:101970001F4B1B6803F480437B607B6802233B6240
:101980000123FB6210233B630223BB630023FB6341
:1019900008233B64A8237B640223BB640423FB6409
:1019A00007F12003184603F021F80346002B01D06D
:1019B00000F0DDFA0F23FB6002233B6100237B6113
:1019C0004FF4A053BB614FF48053FB6107F10C034C
:1019D0000521184603F082FA0346002B01D000F0DF
:1019E000C6FA00BF5037BD4680BD00BF0038024078
:1019F0000070004080B584B000AF3B4600221A6002
:101A00005A609A60DA60214B214A1A601F4B4FF4EA
:101A100080325A601D4B00229A601C4B00221A61D2
:101A20001A4B01221A76194B002283F82020174BFB
:101A30000022DA62154B174A9A62144B0022DA60D0
:101A4000124B0122DA61114B012283F830200F4B37
:101A500001225A610D4800F02DFE0346002B01D0F3
:101A600000F085FA10233B6001237B600723BB60F5
:101A70003B461946054800F089FF0346002B01D07C
:101A800000F075FA00BF1037BD4680BD7C04002011
:101A9000002001400100000F80B500AF174B184A2D
:101AA0001A60164B15225A60144B00229A60134B91
:101AB0000022DA60114B4FF430221A610F4B4FF4C1
:101AC00040125A610D4B00221A760C4B00225A76B6
:101AD0000A4B00229A76094B0022DA76074B002245
:101AE0001A77064B00225A77044801F0EFF90346B3
:101AF000002B01D000F03BFA00BF80BD2405002080
:101B00000064004080B500AF174B184A1A60164BAE
:101B100015225A60144B00229A60134B0022DA609F
:101B2000114B4FF430221A610F4B4FF440125A619F
:101B30000D4B00221A760C4B00225A760A4B0022DB
:101B40009A76094B0022DA76074B00221A77064B69
:101B500000225A77044801F0B9F90346002B01D05E
:101B600000F005FA00BF80BD4C0500200068004071
:101B700080B500AF114B124A1A60104B4FF4E1329E
:101B80005A600E4B00229A600C4B0022DA600B4B1D
:101B900000221A61094B0C225A61084B00229A61FB
:101BA000064B0022DA61054803F0B8FB0346002B20
:101BB00001D000F0DCF900BF80BD00BF740500203B
:101BC0000048004080B582B000AF00237B600C4B22
:101BD0001B6B0B4A43F480031363094B1B6B03F429
:101BE00080037B607B6800220021382002F0B9F876
:101BF000382002F0D2F800BF0837BD4680BD00BFD4
:101C00000038024080B58AB000AF07F1140300220B
:101C10001A605A609A60DA601A6100233B61344BA3
:101C20001B6B334A43F004031363314B1B6B03F00C
:101C300004033B613B690023FB602D4B1B6B2C4A6B
:101C400043F0800313632A4B1B6B03F08003FB609C
:101C5000FB680023BB60264B1B6B254A43F0010346
:101C60001363234B1B6B03F00103BB60BB680023B2
:101C70007B601F4B1B6B1E4A43F0020313631C4B1C
:101C80001B6B03F002037B607B6842F2F0037B6115
:101C90000023BB610123FB6107F1140319461548BA
:101CA00002F098FC01237B614FF40413BB61012314
:101CB000FB6107F1140319460F4802F08BFC022365
:101CC0007B610023BB610123FB6107F1140319460B
:101CD000094802F07FFC00220121062002F041F8B1
:101CE000062002F05AF800BF2837BD4680BD00BF6D
:101CF00000380240000802400000024080B500AFFA
:101D0000154B00225A61144B00229A61124B01229A
:101D1000DA61114B00221A600F4B00225A600E4B01
:101D200000229A600C4B0022DA600B4B00221A61F1
:101D3000094B01221A62084B0E225A6206490748D3
:101D400001F0C0F9054801F09BFA0221034801F0B7
:101D5000CDFC00BF80BD00BFF005002024050020A1
:101D600080B500AF134B0E225A61124B00229A61CC
:101D7000104B0122DA610F4B00221A600D4B00223A
:101D80005A600C4B00229A600A4B0022DA60094B21
:101D900000221A61074B01221A620649064801F027
:101DA00091F9054801F06CFA0221034801F09EFC0C
:101DB00000BF80BD4C0600204C05002080B485B0DB
:101DC00000AF78600B46FB70FF23FB730023BB73EF
:101DD00022E0BB7B7A6813441A78FB7B5340FB7389
:101DE00000237B7312E097F90F30002B08DA97F984
:101DF0000F305B005BB283F01D035BB2FB7302E04C
:101E0000FB7B5B00FB737B7B01337B737B7B072B53
:101E1000E9D9BB7B0133BB73BA7BFB789A42D8D339
:101E2000FB7BDB43DBB218461437BD465DF8047B11
:101E30007047000080B582B000AF7860012204498D
:101E4000044800F07BFC00BF0837BD4680BD00BFE2
:101E5000841600207C04002080B582B000AF78603A
:101E600009E04FF0FF3301227968074803F0A6FA32
:101E70007B6801337B607B681B78002BF1D100BF4E
:101E800000BF0837BD4680BD74050020F0B5A9B07D
:101E900008AF03463961FB821D4B1A68F98A3B691A
:101EA0001B781C463B6901331B781D463B69023396
:101EB0001B781E463B6903331B78FB603B69043388
:101EC0001B78BB603B6905331B787B603B6906333D
:101ED0001B783B603B6907331B7807F11C000793B5
:101EE0003B6806937B680593BB680493FB68039388
:101EF0000296019500940B46064904F07BFA07F11F
:101F00001C031846FFF7A8FF00BF8437BD46F0BD8D
:101F1000A8160020A46F000880B483B000AF7860DA
:101F2000094B1B881A46094B1978094B9954064BE3
:101F30001B8801339AB2044B1A8000BF0C37BD4690
:101F40005DF8047B704700BF7C06002080160020EF
:101F50008006002080B582B000AF0346FB80FB887E
:101F6000184600F083FB00BF0837BD4680BD80B433
:101F700000AF72B600BF00BFFDE7000080B483B0C1
:101F800000AF00237B60104B5B6C0F4A43F480432F
:101F900053640D4B5B6C03F480437B607B680023D0
:101FA0003B60094B1B6C084A43F080531364064B9B
:101FB0001B6C03F080533B603B6800BF0C37BD4691
:101FC0005DF8047B704700BF0038024080B58CB0DC
:101FD00000AF786007F11C0300221A605A609A6013
:101FE000DA601A617B681B684F4A934246D14F4BB7
:101FF0001B6801334D4A13604C4B1B68012B0DD1FC
:102000000023BB614A4B1B6C494A43F000731364C5
:10201000474B1B6C03F00073BB61BB6900237B6102
:10202000434B1B6B424A43F001031363404B1B6B52
:1020300003F001037B617B694FF4C053FB61022312
:102040003B6200237B620323BB620923FB6207F12F
:102050001C031946374802F0BDFA00220221142061
:1020600001F07FFE142001F098FE01237B6207F14E
:102070001C0319462F4802F0ADFA50E07B681B683C
:102080002D4A93424BD100233B61294B1B6C284ABC
:1020900043F080631364264B1B6C03F080633B6149
:1020A0003B69224B1B680133204A13601F4B1B689E
:1020B000012B0DD10023FB601D4B1B6C1C4A43F010
:1020C000007313641A4B1B6C03F00073FB60FB6816
:1020D0000023BB60164B1B6B154A43F002031363CE
:1020E000134B1B6B03F00203BB60BB684FF4405300
:1020F000FB6102233B6200237B620323BB62092353
:10210000FB6207F11C0319460C4802F063FA002237
:102110000221402001F025FE402001F03EFE00BFDC
:102120003037BD4680BD00BF00640040E01600208F
:1021300000380240000002400068004000040240F5
:1021400080B58AB000AF786007F1140300221A60EE
:102150005A609A60DA601A617B681B681D4A934274
:1021600034D100233B611C4B1B6C1B4A43F480237E
:102170001364194B1B6C03F480233B613B69002300
:10218000FB60154B1B6B144A43F004031363124BA3
:102190001B6B03F00403FB60FB684FF440637B613F
:1021A0000223BB610023FB6103233B6207237B62A5
:1021B00007F114031946094802F00CFA0022012124
:1021C000272001F0CEFD272001F0E7FD00BF2837D2
:1021D000BD4680BD00480040003802400008024073
:1021E00080B584B000AF78607B681B68224A934258
:1021F0003ED10023FB60214B5B6C204A43F480738B
:1022000053641E4B5B6C03F48073FB60FB681C4BD8
:102210001C4A1A601A4B00225A60194B00229A601D
:10222000174B0022DA60164B4FF480621A61144B90
:102230004FF400625A61124B4FF400529A61104BF6
:102240004FF48072DA610E4B4FF480321A620C4BFD
:1022500000225A620A4801F0BBFD0346002B01D060
:10226000FFF785FE7B68064A9A63054A7B6893639D
:1022700000BF1037BD4680BD00200140003802403D
:10228000C40400201064024080B400AF00BFFDE72A
:1022900080B400AF00BFFDE780B400AF00BFFDE732
:1022A00080B400AF00BFFDE780B400AF00BFFDE722
:1022B00080B400AF00BFBD465DF8047B704780B4BA
:1022C00000AF00BFBD465DF8047B704780B400AF2F
:1022D00000BFBD465DF8047B7047000080B500AFCD
:1022E00000F0A4F9034B1B680133024A136000BFDE
:1022F00080BD00BFA816002080B500AF012002F00D
:1023000051FB00BF80BD000080B582B000AF204807
:1023100001F012FA1F4B204A00211D4801F0C4F8B9
:102320001D4B1B68A22B2FD11A4B1A781B4B1A700E
:10233000184B5A781A4B1A7000237B6014E0154A28
:102340007B6813441978174A7B6813440A461A704D
:10235000104A7B6813441978134A7B6813440A4671
:102360001A707B6801337B607B68072BE7DD0F4BBE
:1023700001221A700E4B01221A70074B1B689BB288
:1023800004491846FFF782FD00BF0837BD4680BDEF
:102390002405002090160020D4050020AC16002053
:1023A000AD160020C8160020BC160020C416002060
:1023B000B816002080B500AF044803F0AFF8012242
:1023C0000349024803F085F800BF80BD7405002072
:1023D0008016002080B500AF024801F091FE00BFDA
:1023E00080BD00BFC404002080B582B000AF254886
:1023F00001F0A2F9244B254A0021224801F054F8AB
:10240000224B1B68122B39D106211F48FFF7D6FC3F
:102410000346FB701C4B9B79FA789A420CBF012350
:102420000023DBB2BB7000237B600BE0164A7B68A5
:1024300013441978164A7B6813440A461A707B685D
:1024400001337B607B68072BF0DD0F4B9A79114BD2
:102450001A70114ABB781370104B01221A70BB78A6
:10246000002B04D04FF400510D4802F080FA074BC6
:102470001B689BB204491846FFF708FD00BF0837E8
:10248000BD4680BD4C050020A0160020300600206F
:10249000D4160020DC160020DD160020D016002007
:1024A0000008024080B586B000AF7860144A154B32
:1024B000D31A7B617B693B61134B1B68002B02D1F4
:1024C000114B124A1A60104B1A687B6813443A6920
:1024D0009A4207D203F0B8FF03460C221A604FF06D
:1024E000FF3309E0084B1B68FB60074B1A687B68E9
:1024F0001344054A1360FB6818461837BD4680BD73
:102500000000022000040000E4160020381800201B
:1025100080B400AF064BD3F88830054A43F470030B
:10252000C2F8883000BFBD465DF8047B704700BF2D
:1025300000ED00E0DFF834D00D480E490E4A0023CC
:1025400002E0D458C4500433C4188C42F9D30B4A67
:102550000B4C002301E013600432A242FBD3FFF7CF
:10256000D7FF03F077FFFFF71DF870470000022048
:1025700000000020600000200472000860000020BD
:1025800034180020FEE7000080B500AF0E4B1B683A
:102590000D4A43F4007313600B4B1B680A4A43F463
:1025A00080631360084B1B68074A43F48073136011
:1025B000032001F0CBFB002000F008F8FFF7DEFC61
:1025C0000023184680BD00BF003C024080B582B0A9
:1025D00000AF7860124B1A68124B1B7819464FF403
:1025E0007A73B3FBF1F3B2FBF3F3184601F0E3FBAC
:1025F0000346002B01D001230EE07B680F2B0AD885
:10260000002279684FF0FF3001F0ABFB064A7B688F
:102610001360002300E0012318460837BD4680BD43
:10262000040000200C0000200800002080B400AF4F
:10263000064B1B781A46064B1B681344044A13606A
:1026400000BFBD465DF8047B704700BF0C00002052
:10265000E816002080B400AF034B1B681846BD4647
:102660005DF8047B704700BFE816002080B584B099
:1026700000AF7860FFF7EEFFB8607B68FB60FB6837
:10268000B3F1FF3F05D00A4B1B781A46FB68134491
:10269000FB6000BFFFF7DEFF0246BB68D31AFA6893
:1026A0009A42F7D800BF00BF1037BD4680BD00BFBB
:1026B0000C00002080B584B000AF78600023FB736D
:1026C0007B68002B01D1012333E07B681B6C002B5E
:1026D00009D17868FFF784FD7B6800225A647B6823
:1026E000002283F83C207B681B6C03F01003002B56
:1026F00018D17B681B6C23F4885323F0020343F04A
:1027000002027B681A64786800F062FA7B68002233
:102710005A647B681B6C23F0030343F001027B685F
:102720001A6401E00123FB737B68002283F83C20DC
:10273000FB7B18461037BD4680BD000080B588B0D1
:1027400000AFF860B9607A6000237B610023FB77FB
:10275000FB6893F83C30012B01D10223EBE0FB68CE
:10276000012283F83C20FB681B689B6803F001038F
:10277000012B18D0FB681B689A68FB681B6842F045
:1027800001029A606E4B1B686E4AA2FB03239A0CEF
:1027900013465B0013447B6102E07B69013B7B6174
:1027A0007B69002BF9D1FB681B689B6803F480737D
:1027B000B3F5807F07D1FB681B689A68FB681B68CC
:1027C00022F480729A60FB681B689B6803F0010327
:1027D000012B40F0A380FB681B6C23F4E06323F023
:1027E000010343F48072FB681A64FB681B685B6832
:1027F00003F48063002B07D0FB681B6C23F4405369
:1028000043F48052FB681A64FB681B6C03F480532A
:10281000B3F5805F06D1FB685B6C23F00602FB68B2
:102820005A6402E0FB6800225A64FB68002283F8C5
:102830003C20454BBB61FB689B6B444ADA63FB68F9
:102840009B6B434A1A64FB689B6B424ADA64FB68E1
:102850001B686FF022021A60FB681B685A68FB68ED
:102860001B6842F080625A60FB681B689A68FB68CC
:102870001B6842F480729A60FB68986BFB681B6867
:102880004C331946BA687B6801F050FB0346FB776E
:10289000BB695B6803F01F03002B2AD1FB681B6830
:1028A0002D4A934215D0FB681B682C4A934205D1F0
:1028B000254B5B6803F01F03002B0AD0FB681B68E5
:1028C000274A934236D1204B5B6803F01003002B5C
:1028D00030D1FB681B689B6803F04053002B29D163
:1028E000FB681B689A68FB681B6842F080429A602C
:1028F00020E0FB681B68184A93421BD1FB681B68E9
:102900009B6803F04053002B14D1FB681B689A6846
:10291000FB681B6842F080429A600BE0FB681B6C0E
:1029200043F01002FB681A64FB685B6C43F0010221
:10293000FB685A64FB7F18462037BD4680BD00BF48
:102940000400002083DE1B4300230140C92D000842
:10295000832E00089F2E0008002001400021014026
:102960000022014080B483B000AF786000BF0C3714
:10297000BD465DF8047B704780B483B000AF7860DB
:1029800000BF0C37BD465DF8047B704780B485B04E
:1029900000AF786039600023BB607B6893F83C30FF
:1029A000012B01D1022305E17B68012283F83C2041
:1029B0003B681B68092B25D97B681B68D9683B6875
:1029C0001B689BB21A4613465B0013441E3B07224A
:1029D00002FA03F3DA437B681B680A40DA607B681B
:1029E0001B68D9683B689A683B681B689BB21846AD
:1029F00003465B0003441E3B9A407B681B680A4306
:102A0000DA6022E07B681B6819693B681B689BB22F
:102A10001A4613465B001344072202FA03F3DA4313
:102A20007B681B680A401A617B681B6819693B68F0
:102A30009A683B681B689BB2184603465B000344D8
:102A40009A407B681B680A431A613B685B68062BE7
:102A500024D87B681B68596B3B685A6813469B00F7
:102A60001344053B1F2202FA03F3DA437B681B6819
:102A70000A405A637B681B68596B3B681B689BB2B2
:102A800018463B685A6813469B001344053B00FAFE
:102A900003F27B681B680A435A634CE03B685B683F
:102AA0000C2B24D87B681B68196B3B685A6813464B
:102AB0009B001344233B1F2202FA03F3DA437B6893
:102AC0001B680A401A637B681B68196B3B681B68AC
:102AD0009BB218463B685A6813469B001344233B3D
:102AE00000FA03F27B681B680A431A6323E07B68E1
:102AF0001B68D96A3B685A6813469B001344413BE4
:102B00001F2202FA03F3DA437B681B680A40DA6289
:102B10007B681B68D96A3B681B689BB218463B6898
:102B20005A6813469B001344413B00FA03F27B684A
:102B30001B680A43DA62224BFB607B681B68214AF0
:102B4000934209D13B681B68122B05D1FB685B6877
:102B500043F48002FB685A607B681B68194A934201
:102B600023D13B681B68102B03D03B681B68112BDB
:102B70001BD1FB685B6843F40002FB685A603B684A
:102B80001B68102B11D1104B1B68104AA2FB0323AA
:102B90009A0C13469B0013445B00BB6002E0BB68C9
:102BA000013BBB60BB68002BF9D17B68002283F836
:102BB0003C20002318461437BD465DF8047B70475F
:102BC00000230140002001400400002083DE1B435D
:102BD00080B485B000AF7860794BFB60FB685B68C0
:102BE00023F44032FB685A60FB685A687B685B6874
:102BF0001A43FB685A607B681B685A687B681B68CD
:102C000022F480725A607B681B6859687B681B6974
:102C10001A027B681B680A435A607B681B685A6803
:102C20007B681B6822F040725A607B681B68596899
:102C30007B689A687B681B680A435A607B681B68DC
:102C40009A687B681B6822F400629A607B681B6844
:102C500099687B68DA687B681B680A439A607B68BE
:102C60009B6A584A934222D07B681B689A687B68AB
:102C70001B6822F070629A607B681B6899687B68A9
:102C80009A6A7B681B680A439A607B681B689A682B
:102C90007B681B6822F040529A607B681B689968C9
:102CA0007B68DA6A7B681B680A439A600FE07B687E
:102CB0001B689A687B681B6822F070629A607B6868
:102CC0001B689A687B681B6822F040529A607B6898
:102CD0001B689A687B681B6822F002029A607B6816
:102CE0001B6899687B681B7E5A007B681B680A43D7
:102CF0009A607B6893F82030002B1BD07B681B68A0
:102D00005A687B681B6842F400625A607B681B68E3
:102D10005A687B681B6822F460425A607B681B68B3
:102D200059687B685B6A013B5A037B681B680A43EE
:102D30005A6007E07B681B685A687B681B6822F44E
:102D400000625A607B681B68DA6A7B681B6822F441
:102D50007002DA627B681B68D96A7B68DB69013BB9
:102D60001A057B681B680A43DA627B681B689A68ED
:102D70007B681B6822F400729A607B681B68996804
:102D80007B6893F830305A027B681B680A439A606C
:102D90007B681B689A687B681B6822F480629A6073
:102DA0007B681B6899687B685B699A027B681B6813
:102DB0000A439A6000BF1437BD465DF8047B704734
:102DC000002301400100000F80B584B000AF78609F
:102DD0007B689B6BFB60FB681B6C03F05003002B54
:102DE0003CD1FB681B6C43F40072FB681A64FB68FF
:102DF0001B689B6803F04053002B2BD1FB681B7EA4
:102E0000002B27D1FB681B68DB6A03F47003002BDF
:102E100006D0FB681B689B6803F48063002B19D104
:102E2000FB681B685A68FB681B6822F020025A6026
:102E3000FB681B6C23F48072FB681A64FB681B6CD4
:102E400003F48053002B05D1FB681B6C43F0010297
:102E5000FB681A64F868FEF7EDFF0EE0FB681B6C78
:102E600003F01003002B03D0F868FFF785FD04E0A2
:102E7000FB689B6BDB6C7868984700BF1037BD46DA
:102E800080BD80B584B000AF78607B689B6BFB60D1
:102E9000F868FFF767FD00BF1037BD4680BD80B5FD
:102EA00084B000AF78607B689B6BFB60FB6840225E
:102EB0001A64FB685B6C43F00402FB685A64F868B0
:102EC000FFF75AFD00BF1037BD4680BD80B584B006
:102ED00000AF78607B68002B01D10123EDE07B68B7
:102EE00093F82030DBB2002B02D17868FFF76EF840
:102EF0007B681B681A687B681B6842F001021A60D5
:102F0000FFF7A8FBF86012E0FFF7A4FB0246FB689E
:102F1000D31A0A2B0BD97B685B6A43F400327B68B7
:102F20005A627B68052283F820200123C5E07B6874
:102F30001B685B6803F00103002BE5D07B681B680E
:102F40001A687B681B6822F002021A60FFF782FB96
:102F5000F86012E0FFF77EFB0246FB68D31A0A2BEB
:102F60000BD97B685B6A43F400327B685A627B68EA
:102F7000052283F8202001239FE07B681B685B68A3
:102F800003F00203002BE5D17B681B7E012B08D1E7
:102F90007B681B681A687B681B6842F080021A60B5
:102FA00007E07B681B681A687B681B6822F0800258
:102FB0001A607B685B7E012B08D17B681B681A68EE
:102FC0007B681B6842F040021A6007E07B681B6860
:102FD0001A687B681B6822F040021A607B689B7E3F
:102FE000012B08D17B681B681A687B681B6842F05C
:102FF00020021A6007E07B681B681A687B681B6800
:1030000022F020021A607B68DB7E012B08D17B68EE
:103010001B681A687B681B6822F010021A6007E0C0
:103020007B681B681A687B681B6842F010021A6094
:103030007B681B7F012B08D17B681B681A687B6843
:103040001B6842F008021A6007E07B681B681A6878
:103050007B681B6822F008021A607B685B7F012B8B
:1030600008D17B681B681A687B681B6842F0040201
:103070001A6007E07B681B681A687B681B6822F08F
:1030800004021A607B689A687B68DB681A437B6875
:103090001B691A437B685B6942EA03017B685B68D2
:1030A0005A1E7B681B680A43DA617B6800225A62F9
:1030B0007B68012283F82020002318461037BD4684
:1030C00080BD000080B487B000AF786039607B6855
:1030D00093F82030FB75FB7D012B03D0FB7D022B89
:1030E00040F0BE80654B3B613B69D3F8003243F052
:1030F00001023B69C3F800223B69D3F8003223F494
:103100007C523B69C3F800223B69D3F800223B683C
:103110005B6A1B021A433B69C3F800223B685B6988
:1031200003F01F03012202FA03F3FB603B69D3F8AB
:103130001C22FB68DB431A403B69C3F81C223B6836
:10314000DB69002B23D13B69D3F80C22FB68DB43FE
:103150001A403B69C3F80C223B68DB6819043B68E2
:103160005B689BB23A68526919433B69483243F83D
:1031700032103B689B6819043B681B689AB23B6835
:103180005B690A4339694833DB000B445A603B688A
:10319000DB69012B22D13B69D3F80C22FB681A436F
:1031A0003B69C3F80C223B681B6819043B685B68E9
:1031B0009BB23A68526919433B69483243F832106E
:1031C0003B689B6819043B68DB689AB23B685B69A3
:1031D0000A4339694833DB000B445A603B689B69FA
:1031E000002B09D13B69D3F80422FB68DB431A406A
:1031F0003B69C3F8042207E03B69D3F80422FB686B
:103200001A433B69C3F804223B681B69002B09D1B0
:103210003B69D3F81422FB68DB431A403B69C3F8CF
:10322000142207E03B69D3F81422FB681A433B6978
:10323000C3F814223B681B6A012B07D13B69D3F802
:103240001C22FB681A433B69C3F81C223B69D3F874
:10325000003223F001023B69C3F80022002306E09C
:103260007B685B6A43F480227B685A6201231846BC
:103270001C37BD465DF8047B704700BF006400400A
:1032800080B584B000AF78607B6893F82030DBB203
:10329000012B2ED17B68022283F820207B681B68DB
:1032A0001A687B681B6822F001021A60FFF7D2F9E6
:1032B000F86012E0FFF7CEF90246FB68D31A0A2B3A
:1032C0000BD97B685B6A43F400327B685A627B6887
:1032D000052283F82020012312E07B681B685B68CD
:1032E00003F00103002BE5D17B6800225A62002322
:1032F00006E07B685B6A43F400227B685A62012324
:1033000018461037BD4680BD80B489B000AFF86064
:10331000B9607A603B60FB6893F82030FB77FB680C
:103320001B689B68BB61FB7F012B03D0FB7F022BDB
:1033300040F0AD80BB6903F08063002B0AD1BB690C
:1033400003F00063002B05D1BB6903F08053002B11
:1033500000F09580BB691B0E03F003037B61012223
:103360007B699A403B681A60BB689B68002B0DD153
:10337000BB681B685A05BB68DB68F96809681A43B3
:103380007B6918331B010B441A600FE0BB685B6854
:10339000DA00BB689B681A43BB68DB68F968096898
:1033A0001A437B6918331B010B441A60FB681968C8
:1033B000BB681A697B6918331B010B4404331A601C
:1033C000BB681B7D012B11D1FB681A687B69183320
:1033D0001B01134404331B68FA68116843F48072BC
:1033E0007B6918331B010B4404331A607B68073375
:1033F0001B781A067B6806331B781B041A437B680C
:1034000005331B781B0213437A6804321278104686
:10341000FA68116843EA00027B691B010B4403F55B
:10342000C6731A607B6803331B781A067B68023305
:103430001B781B041A437B6801331B781B02134360
:103440007A6812781046FA68116843EA00027B69CC
:103450001B010B4403F5C4731A60FB681A687B698F
:1034600018331B0113441B68FA68116843F001020A
:103470007B6918331B010B441A6000230EE0FB68C4
:103480005B6A43F40012FB685A62012306E0FB68A2
:103490005B6A43F48022FB685A6201231846243792
:1034A000BD465DF8047B704780B487B000AFF8601C
:1034B000B9607A603B60FB6893F82030FB75FB7D58
:1034C000012B03D0FB7D022B40F00381BB68002B56
:1034D0000ED1FB681B68DB6803F00303002B16D1D9
:1034E000FB685B6A43F40012FB685A620123F7E051
:1034F000FB681B681B6903F00303002B07D1FB6803
:103500005B6A43F40012FB685A620123E8E0FB683F
:103510001A68BB681B331B0113441B6803F00402C9
:103520007B689A607B689B68002B0CD1FB681A68EB
:10353000BB681B331B0113441B685B0DC3F30A02FA
:103540007B681A600BE0FB681A68BB681B331B01C1
:1035500013441B68DB0823F060427B685A60FB68F9
:103560001A68BB681B331B0113441B6803F002027B
:103570007B68DA60FB681A68BB681B331B01134465
:1035800004331B6803F00803002B03D07B68082278
:103590001A610BE0FB681A68BB681B331B011344FC
:1035A00004331B6803F00F027B681A61FB681A681A
:1035B000BB681B331B01134404331B681B0ADAB2BC
:1035C0007B689A61FB681A68BB681B331B01134454
:1035D00004331B681B0C9AB27B685A61FB681A683B
:1035E000BB681B01134403F5DC731B68DAB23B684C
:1035F0001A70FB681A68BB681B01134403F5DC737F
:103600001B681A0A3B680133D2B21A70FB681A6849
:10361000BB681B01134403F5DC731B681A0C3B6881
:103620000233D2B21A70FB681A68BB681B011344DC
:1036300003F5DC731B681A0E3B680333D2B21A70B1
:10364000FB681A68BB681B01134403F5DE731A6834
:103650003B680433D2B21A70FB681A68BB681B015E
:10366000134403F5DE731B681A0A3B680533D2B2B4
:103670001A70FB681A68BB681B01134403F5DE73FC
:103680001B681A0C3B680633D2B21A70FB681A68C2
:10369000BB681B01134403F5DE731B681A0E3B68FD
:1036A0000733D2B21A70BB68002B08D1FB681B68C5
:1036B000DA68FB681B6842F02002DA6007E0FB680A
:1036C0001B681A69FB681B6842F020021A6100231C
:1036D00006E0FB685B6A43F48022FB685A620123C0
:1036E00018461C37BD465DF8047B704780B485B032
:1036F00000AF786039607B6893F82030FB73FB7B08
:10370000012B02D0FB7B022B09D17B681B68596916
:103710007B681B683A680A435A61002306E07B68AD
:103720005B6A43F480227B685A620123184614378F
:10373000BD465DF8047B704780B58AB000AF786005
:1037400000237B627B681B685B693B627B681B684C
:103750005B68FB617B681B689B68BB617B681B685F
:10376000DB687B617B681B681B693B617B681B684E
:103770009B69FB603B6A03F00103002B7CD0BB69B3
:1037800003F00103002B23D07B681B6801229A60A1
:10379000BB6903F00203002B03D0786800F083F9C3
:1037A00016E0BB6903F00403002B04D07B6A43F4EA
:1037B00000637B620CE0BB6903F00803002B04D0BC
:1037C0007B6A43F480537B6202E0786800F089F9F9
:1037D000BB6903F48073002B24D07B681B684FF413
:1037E00080729A60BB6903F40073002B03D0786881
:1037F00000F063F916E0BB6903F48063002B04D08A
:103800007B6A43F400537B620CE0BB6903F4006302
:10381000002B04D07B6A43F480437B6202E078682B
:1038200000F069F9BB6903F48033002B24D07B6876
:103830001B684FF480329A60BB6903F40033002B9D
:1038400003D0786800F043F916E0BB6903F48023E5
:10385000002B04D07B6A43F400437B620CE0BB691D
:1038600003F40023002B04D07B6A43F480337B6293
:1038700002E0786800F049F93B6A03F00803002B86
:103880000CD07B6903F01003002B07D07B6A43F454
:1038900000737B627B681B681022DA603B6A03F06E
:1038A0000403002B0BD07B6903F00803002B06D028
:1038B0007B681B680822DA60786800F03AF93B6A96
:1038C00003F00203002B09D07B681B68DB6803F060
:1038D0000303002B02D0786800F021F93B6A03F063
:1038E0004003002B0CD03B6903F01003002B07D0E2
:1038F0007B6A43F480637B627B681B6810221A61D9
:103900003B6A03F02003002B0BD03B6903F0080354
:10391000002B06D07B681B6808221A61786800F0CB
:103920001CF93B6A03F01003002B09D07B681B686D
:103930001B6903F00303002B02D0786800F003F941
:103940003B6A03F40033002B0BD0FB6903F0100338
:10395000002B06D07B681B6810225A60786800F044
:1039600006F93B6A03F48033002B0BD0FB6903F0AC
:103970000803002B06D07B681B6808225A60786811
:1039800000F0FFF83B6A03F40043002B7BD0FB6997
:1039900003F00403002B72D03B6A03F48073002B06
:1039A00008D0FB6803F00103002B03D07B6A43F0CF
:1039B00001037B623B6A03F40073002B08D0FB68B1
:1039C00003F00203002B03D07B6A43F002037B6207
:1039D0003B6A03F48063002B08D0FB6803F0040308
:1039E000002B03D07B6A43F004037B623B6A03F441
:1039F0000063002B43D0FB6803F07003002B3ED024
:103A0000FB6803F07003602B2BD0602B2ED8502B5B
:103A100022D0502B2AD8402B19D0402B26D8302B1F
:103A200010D0302B22D8102B02D0202B05D01DE037
:103A30007B6A43F008037B6219E07B6A43F0100362
:103A40007B6214E07B6A43F020037B620FE07B6AB9
:103A500043F040037B620AE07B6A43F080037B62B1
:103A600005E07B6A43F480737B6200E000BF7B6803
:103A70001B689A697B681B6822F070029A617B68F8
:103A80001B6804225A607B6A002B08D07B685A6A44
:103A90007B6A1A437B685A62786800F07CF800BF42
:103AA0002837BD4680BD80B483B000AF786000BFCA
:103AB0000C37BD465DF8047B704780B483B000AF1F
:103AC000786000BF0C37BD465DF8047B704780B45A
:103AD00083B000AF786000BF0C37BD465DF8047B53
:103AE000704780B483B000AF786000BF0C37BD462C
:103AF0005DF8047B704780B483B000AF786000BF8E
:103B00000C37BD465DF8047B704780B483B000AFCE
:103B1000786000BF0C37BD465DF8047B704780B409
:103B200083B000AF786000BF0C37BD465DF8047B02
:103B3000704780B483B000AF786000BF0C37BD46DB
:103B40005DF8047B704780B483B000AF786000BF3D
:103B50000C37BD465DF8047B704780B483B000AF7E
:103B6000786000BF0C37BD465DF8047B704780B4B9
:103B700083B000AF786000BF0C37BD465DF8047BB2
:103B8000704780B483B000AF786000BF0C37BD468B
:103B90005DF8047B704780B483B000AF786000BFED
:103BA0000C37BD465DF8047B7047000080B485B0DB
:103BB00000AF78607B6803F00703FB600C4BDB68A9
:103BC000BB60BA684FF6FF031340BB60FB681A0284
:103BD000BB68134343F0BF6343F40033BB60044A44
:103BE000BB68D36000BF1437BD465DF8047B7047E7
:103BF00000ED00E080B400AF044BDB681B0A03F06B
:103C000007031846BD465DF8047B704700ED00E0F1
:103C100080B483B000AF0346FB7197F90730002BE7
:103C20000BDBFB7903F01F02074997F907305B09AB
:103C3000012000FA02F241F8232000BF0C37BD46F4
:103C40005DF8047B704700BF00E100E080B483B002
:103C500000AF03463960FB7197F90730002B0ADB90
:103C60003B68DAB20C4997F907301201D2B20B4423
:103C700083F800230AE03B68DAB20849FB7903F0D5
:103C80000F03043B1201D2B20B441A7600BF0C376B
:103C9000BD465DF8047B704700E100E000ED00E008
:103CA00080B489B000AFF860B9607A60FB6803F057
:103CB0000703FB61FB69C3F10703042B28BF04233F
:103CC000BB61FB690433062B02D9FB69033B00E0AF
:103CD00000237B614FF0FF32BB6902FA03F3DA4342
:103CE000BB681A407B699A404FF0FF317B6901FA4B
:103CF00003F3D9437B680B40134318462437BD4672
:103D00005DF8047B7047000080B582B000AF78603A
:103D10007B68013BB3F1807F01D301230FE00A4AA6
:103D20007B68013B53600F214FF0FF30FFF78EFFA0
:103D3000054B00229A60044B07221A6000231846A4
:103D40000837BD4680BD00BF10E000E080B582B0FE
:103D500000AF78607868FFF729FF00BF0837BD46DD
:103D600080BD80B586B000AF0346B9607A60FB7352
:103D700000237B61FFF73EFF78617A68B968786954
:103D8000FFF78EFF024697F90F3011461846FFF7EE
:103D90005DFF00BF1837BD4680BD80B582B000AF63
:103DA0000346FB7197F907301846FFF731FF00BF54
:103DB0000837BD4680BD80B582B000AF78607868B6
:103DC000FFF7A2FF034618460837BD4680BD000036
:103DD00080B586B000AF786000237B61FEF73AFCC7
:103DE00038617B68002B01D1012399E07B680222B6
:103DF00083F835207B68002283F834207B681B68B9
:103E00001A687B681B6822F001021A600FE0FEF757
:103E100021FC02463B69D31A052B08D97B68202276
:103E20005A657B68032283F83520032378E07B689A
:103E30001B681B6803F00103002BE8D17B681B683B
:103E40001B687B617A69384B13407B617B685A68D9
:103E50007B689B681A437B68DB681A437B681B6935
:103E60001A437B685B691A437B689B691A437B68CA
:103E7000DB691A437B681B6A13437A6913437B61CE
:103E80007B685B6A042B07D17B68DA6A7B681B6BF3
:103E900013437A6913437B617B681B687A691A60F4
:103EA0007B681B685B697B617B6923F007037B612F
:103EB0007B685B6A7A6913437B617B685B6A042B6E
:103EC00017D17B689B6A7A6913437B617B68DB6AE5
:103ED000002B0ED0786800F001FB0346002B08D0C1
:103EE0007B6840225A657B68012283F835200123D4
:103EF00016E07B681B687A695A61786800F0B8FA46
:103F00000346FB607B68DB6D3F229A40FB689A604A
:103F10007B6800225A657B68012283F835200023E4
:103F200018461837BD4680BD3F8010F080B586B07A
:103F300000AFF860B9607A603B600023FB75FB68F6
:103F40009B6D3B61FB6893F83430012B01D1022358
:103F500040E0FB68012283F83420FB6893F8353099
:103F6000DBB2012B2FD1FB68022283F83520FB68DE
:103F700000225A653B687A68B968F86800F04AFA26
:103F8000FB68DB6D3F229A403B699A60FB681B68C7
:103F90001A68FB681B6842F016021A60FB681B6C0B
:103FA000002B07D0FB681B681A68FB681B6842F08F
:103FB00008021A60FB681B681A68FB681B6842F0FD
:103FC00001021A6005E0FB68002283F83420022316
:103FD000FB75FB7D18461837BD4680BD80B584B0A3
:103FE00000AF78607B689B6DFB60FEF733FBB860C9
:103FF0007B6893F83530DBB2022B08D07B688022D7
:104000005A657B68002283F83420012352E07B68E4
:104010001B681A687B681B6822F016021A607B68AE
:104020001B685A697B681B6822F080025A617B68B2
:104030001B6C002B03D17B689B6C002B07D07B682B
:104040001B681A687B681B6822F008021A607B688C
:104050001B681A687B681B6822F001021A6013E073
:10406000FEF7F8FA0246BB68D31A052B0CD97B6819
:1040700020225A657B68032283F835207B68002262
:1040800083F83420032315E07B681B681B6803F06A
:104090000103002BE4D17B68DB6D3F229A40FB6873
:1040A0009A607B68012283F835207B68002283F8C0
:1040B0003420002318461037BD4680BD80B483B03D
:1040C00000AF78607B6893F83530DBB2022B04D008
:1040D0007B6880225A6501230CE07B68052283F807
:1040E00035207B681B681A687B681B6822F0010218
:1040F0001A60002318460C37BD465DF8047B7047F4
:1041000080B586B000AF78600023BB608E4B1B6823
:104110008E4AA2FB03239B0A7B617B689B6D3B61FC
:104120003B691B68FB607B68DB6D08229A40FB687B
:104130001340002B1AD07B681B681B6803F0040334
:10414000002B13D07B681B681A687B681B6822F001
:1041500004021A607B68DB6D08229A403B699A6012
:104160007B685B6D43F001027B685A657B68DB6DA1
:1041700001229A40FB681340002B12D07B681B6819
:104180005B6903F08003002B0BD07B68DB6D0122A1
:104190009A403B699A607B685B6D43F002027B68E2
:1041A0005A657B68DB6D04229A40FB681340002B44
:1041B00012D07B681B681B6803F00203002B0BD036
:1041C0007B68DB6D04229A403B699A607B685B6D7B
:1041D00043F004027B685A657B68DB6D10229A40CD
:1041E000FB681340002B43D07B681B681B6803F0FF
:1041F0000803002B3CD07B68DB6D10229A403B69A2
:104200009A607B681B681B6803F48023002B18D01E
:104210007B681B681B6803F40023002B08D17B68B4
:104220001B6C002B24D07B681B6C786898471FE0C0
:104230007B689B6C002B1BD07B689B6C78689847D5
:1042400016E07B681B681B6803F48073002B07D1A2
:104250007B681B681A687B681B6822F008021A607A
:104260007B681B6C002B03D07B681B6C78689847BD
:104270007B68DB6D20229A40FB681340002B00F026
:104280008F807B681B681B6803F01003002B00F015
:1042900087807B68DB6D20229A403B699A607B684F
:1042A00093F83530DBB2052B36D17B681B681A6872
:1042B0007B681B6822F016021A607B681B685A69CB
:1042C0007B681B6822F080025A617B681B6C002BA4
:1042D00003D17B689B6C002B07D07B681B681A6836
:1042E0007B681B6822F008021A607B68DB6D3F2246
:1042F0009A403B699A607B68012283F835207B688D
:10430000002283F834207B681B6D002B7ED07B68F5
:104310001B6D7868984779E07B681B681B6803F41D
:104320008023002B1DD07B681B681B6803F40023CF
:10433000002B0DD17B685B6C002B31D07B685B6CF4
:10434000786898472CE000BF04000020B5814E1B20
:104350007B68DB6B002B23D07B68DB6B786898472E
:104360001EE07B681B681B6803F48073002B0FD171
:104370007B681B681A687B681B6822F010021A6051
:104380007B68012283F835207B68002283F8342083
:104390007B68DB6B002B03D07B68DB6B786898470E
:1043A0007B685B6D002B32D07B685B6D03F0010393
:1043B000002B22D07B68052283F835207B681B68A0
:1043C0001A687B681B6822F001021A60BB6801331F
:1043D000BB607A699A4207D37B681B681B6803F04D
:1043E0000103002BF2D100E000BF7B68012283F8BB
:1043F00035207B68002283F834207B68DB6C002B3F
:1044000005D07B68DB6C7868984700E000BF183700
:10441000BD4680BD80B485B000AFF860B9607A60F9
:104420003B60FB681B681A68FB681B6822F48022EB
:104430001A60FB681B683A685A60FB689B68402BEF
:1044400008D1FB681B687A689A60FB681B68BA68C9
:10445000DA6007E0FB681B68BA689A60FB681B6853
:104460007A68DA6000BF1437BD465DF8047B704798
:1044700080B485B000AF78607B681B68DBB2103B0E
:10448000144AA2FB03231B09FB60134AFB68134475
:104490001B781A467B68DA65FB68032B09D97B68B1
:1044A0001B6823F47F7323F003031A1D7B689A654E
:1044B00007E07B681B6823F47F7323F003037A68AB
:1044C00093657B689B6D18461437BD465DF8047B89
:1044D000704700BFABAAAAAAB871000880B485B023
:1044E00000AF78600023FB737B689B6ABB607B68CE
:1044F0009B69002B1FD1BB68032B56D801A252F831
:1045000023F000BF154500082745000815450008A1
:10451000AB4500087B68DB6A03F08073002B46D054
:104520000123FB7343E07B68DB6AB3F1C07F40D1BA
:104530000123FB733DE07B689B69B3F5005F21D1EC
:10454000BB68032B37D801A252F823F05D45000861
:10455000634500085D450008754500080123FB73AD
:1045600030E07B68DB6A03F08073002B25D00123E9
:10457000FB7322E07B68DB6AB3F1C07F1FD10123AC
:10458000FB731CE0BB68022B03D9BB68032B03D071
:1045900018E00123FB7315E07B68DB6A03F080738E
:1045A000002B0ED00123FB730BE000BF0AE000BF1D
:1045B00008E000BF06E000BF04E000BF02E000BF6B
:1045C00000E000BFFB7B18461437BD465DF8047B56
:1045D000704700BF80B489B000AF786039600023B5
:1045E0007B6100233B610023BB610023FB616BE126
:1045F0000122FB6902FA03F37B613B681B687A695D
:1046000013403B613A697B699A4240F05A813B68AA
:104610005B6803F00303012B05D03B685B6803F084
:104620000303022B30D17B689B68BB61FB695B0095
:10463000032202FA03F3DB43BA691340BB613B6810
:10464000DA68FB695B0002FA03F3BA691343BB61E2
:104650007B68BA699A607B685B68BB610122FB6911
:1046600002FA03F3DB43BA691340BB613B685B6842
:104670001B0903F00102FB6902FA03F3BA69134351
:10468000BB617B68BA695A603B685B6803F00303EF
:10469000032B17D07B68DB68BB61FB695B000322DF
:1046A00002FA03F3DB43BA691340BB613B689A68C3
:1046B000FB695B0002FA03F3BA691343BB617B68D1
:1046C000BA69DA603B685B6803F00303022B23D10D
:1046D000FB69DA087B68083253F82230BB61FB695A
:1046E00003F007039B000F2202FA03F3DB43BA69CE
:1046F0001340BB613B681A69FB6903F007039B0029
:1047000002FA03F3BA691343BB61FB69DA087B68F9
:104710000832B96943F822107B681B68BB61FB69EA
:104720005B00032202FA03F3DB43BA691340BB6167
:104730003B685B6803F00302FB695B0002FA03F36A
:10474000BA691343BB617B68BA691A603B685B68EE
:1047500003F44033002B00F0B4800023FB60604B77
:104760005B6C5F4A43F4804353645D4B5B6C03F4C2
:104770008043FB60FB685B4AFB699B08023352F88D
:104780002330BB61FB6903F003039B000F2202FA95
:1047900003F3DB43BA691340BB617B68524A93421F
:1047A0002BD07B68514A934225D07B68504A934274
:1047B0001FD07B684F4A934219D07B684E4A934280
:1047C00013D07B684D4A93420DD07B684C4A93428C
:1047D00007D07B684B4A934201D107230EE00823A0
:1047E0000CE006230AE0052308E0042306E0032387
:1047F00004E0022302E0012300E00023FA6902F052
:10480000030292009340BA691343BB613549FB69C7
:104810009B080233BA6941F823203B4B9B68BB617C
:104820003B69DB43BA691340BB613B685B6803F4D7
:104830008013002B03D0BA693B691343BB61324A32
:10484000BB699360304BDB68BB613B69DB43BA6992
:104850001340BB613B685B6803F40013002B03D07B
:10486000BA693B691343BB61274ABB69D360264BD6
:104870005B68BB613B69DB43BA691340BB613B6862
:104880005B6803F40033002B03D0BA693B69134320
:10489000BB611D4ABB6953601B4B1B68BB613B6915
:1048A000DB43BA691340BB613B685B6803F4803348
:1048B000002B03D0BA693B691343BB61124ABB6941
:1048C0001360FB690133FB61FB690F2B7FF690AE30
:1048D00000BF00BF2437BD465DF8047B704700BFB2
:1048E000003802400038014000000240000402404D
:1048F00000080240000C0240001002400014024078
:1049000000180240001C0240003C014080B485B009
:1049100000AF78600B467B807B681A697B88134008
:10492000002B02D00123FB7301E00023FB73FB7B10
:1049300018461437BD465DF8047B704780B483B0D9
:1049400000AF78600B467B8013467B707B78002B32
:1049500003D07A887B689A6103E07B881A047B68BD
:104960009A6100BF0C37BD465DF8047B704780B488
:1049700085B000AF78600B467B807B685B69FB602D
:104980007A88FB6813401A04FB68D9437B880B4084
:104990001A437B689A6100BF1437BD465DF8047BFB
:1049A0007047000080B582B000AF0346FB80084B23
:1049B0005A69FB881340002B06D0054AFB885361D7
:1049C000FB88184600F006F800BF0837BD4680BDDA
:1049D000003C014080B483B000AF0346FB8000BFC1
:1049E0000C37BD465DF8047B7047000080B586B08B
:1049F00000AF78607B68002B01D1012367E27B6800
:104A00001B6803F00103002B75D0884B9B6803F0F3
:104A10000C03042B0CD0854B9B6803F00C03082B74
:104A200012D1824B5B6803F48003B3F5800F0BD186
:104A30007E4B1B6803F40033002B5BD07B685B6804
:104A4000002B57D1012342E27B685B68B3F5803FBE
:104A500006D1764B1B68754A43F4803313601DE022
:104A60007B685B68B3F5A02F0CD1704B1B686F4A55
:104A700043F4802313606D4B1B686C4A43F480330E
:104A800013600BE0694B1B68684A23F480331360A2
:104A9000664B1B68654A23F4802313607B685B6860
:104AA000002B13D0FDF7D6FD386108E0FDF7D2FDED
:104AB00002463B69D31A642B01D9032307E25B4BFF
:104AC0001B6803F40033002BF0D014E0FDF7C2FDA7
:104AD000386108E0FDF7BEFD02463B69D31A642B3E
:104AE00001D90323F3E1514B1B6803F40033002B7E
:104AF000F0D100E000BF7B681B6803F00203002BCD
:104B000063D04A4B9B6803F00C03002B0BD0474B40
:104B10009B6803F00C03082B1CD1444B5B6803F427
:104B20008003002B16D1414B1B6803F00203002BBE
:104B300005D07B68DB68012B01D00123C7E13B4B2B
:104B40001B6823F0F8027B681B69DB0037491343BD
:104B50000B603AE07B68DB68002B20D0344B0122ED
:104B60001A60FDF777FD386108E0FDF773FD024636
:104B70003B69D31A022B01D90323A8E12B4B1B68F5
:104B800003F00203002BF0D0284B1B6823F0F8023F
:104B90007B681B69DB00254913430B6015E0244B40
:104BA00000221A60FDF756FD386108E0FDF752FD5E
:104BB00002463B69D31A022B01D9032387E11B4B21
:104BC0001B6803F00203002BF0D17B681B6803F025
:104BD0000803002B36D07B685B69002B16D0154B81
:104BE00001221A60FDF736FD386108E0FDF732FD5D
:104BF00002463B69D31A022B01D9032367E10B4B11
:104C00005B6F03F00203002BF0D01BE0094B002286
:104C10001A60FDF71FFD38610EE0FDF71BFD02462F
:104C20003B69D31A022B07D9032350E10038024015
:104C300000004742800E4742884B5B6F03F002033F
:104C4000002BEAD17B681B6803F00403002B00F003
:104C500097800023FB75814B1B6C03F08053002B66
:104C60000FD10023BB607D4B1B6C7C4A43F080530B
:104C700013647A4B1B6C03F08053BB60BB68012349
:104C8000FB75774B1B6803F48073002B18D1744BB2
:104C90001B68734A43F480731360FDF7DBFC3861D3
:104CA00008E0FDF7D7FC02463B69D31A022B01D975
:104CB00003230CE16A4B1B6803F48073002BF0D0D4
:104CC0007B689B68012B06D1644B1B6F634A43F0E2
:104CD000010313671CE07B689B68052B0CD15F4BBD
:104CE0001B6F5E4A43F0040313675C4B1B6F5B4A08
:104CF00043F0010313670BE0584B1B6F574A23F037
:104D000001031367554B1B6F544A23F004031367C9
:104D10007B689B68002B15D0FDF79CFC38610AE08E
:104D2000FDF798FC02463B69D31A41F28832934260
:104D300001D90323CBE0494B1B6F03F00203002B87
:104D4000EED014E0FDF786FC38610AE0FDF782FC46
:104D500002463B69D31A41F28832934201D90323B8
:104D6000B5E03E4B1B6F03F00203002BEED1FB7D41
:104D7000012B05D1394B1B6C384A23F08053136447
:104D80007B689B69002B00F0A180344B9B6803F08B
:104D90000C03082B5CD07B689B69022B41D1314B03
:104DA00000221A60FDF756FC386108E0FDF752FC5E
:104DB00002463B69D31A022B01D9032387E0274B14
:104DC0001B6803F00073002BF0D17B68DA697B6805
:104DD0001B6A1A437B685B6A9B011A437B689B6A68
:104DE0005B08013B1B041A437B68DB6A1B061B49FB
:104DF00013434B601B4B01221A60FDF72BFC3861FB
:104E000008E0FDF727FC02463B69D31A022B01D9C3
:104E100003235CE0114B1B6803F00073002BF0D000
:104E200054E0104B00221A60FDF714FC386108E0D2
:104E3000FDF710FC02463B69D31A022B01D903236C
:104E400045E0064B1B6803F00073002BF0D13DE0FA
:104E50007B689B69012B07D1012338E000380240B1
:104E600000700040600047421B4B5B68FB607B6842
:104E70009B69012B28D0FB6803F480027B68DB6907
:104E80009A4221D1FB6803F03F027B681B6A9A4279
:104E90001AD1FA6847F6C07313407A68526A9201D1
:104EA000934211D1FB6803F440327B689B6A5B0834
:104EB000013B1B049A4207D1FB6803F070627B68D8
:104EC000DB6A1B069A4201D0012300E0002318464A
:104ED0001837BD4680BD00BF0038024080B584B0A1
:104EE00000AF786039607B68002B01D10123CCE0F2
:104EF000684B1B6803F007033A689A420CD9654B6C
:104F00003A68D2B21A70634B1B6803F007033A6821
:104F10009A4201D00123B8E07B681B6803F00203CA
:104F2000002B20D07B681B6803F00403002B05D006
:104F3000594B9B68584A43F4E05393607B681B6865
:104F400003F00803002B05D0534B9B68524A43F4EF
:104F500060439360504B9B6823F0F0027B689B6832
:104F60004D4913438B607B681B6803F00103002BE2
:104F700044D07B685B68012B07D1474B1B6803F467
:104F80000033002B19D101237FE07B685B68022B83
:104F900003D07B685B68032B07D13F4B1B6803F092
:104FA0000073002B09D101236FE03B4B1B6803F01A
:104FB0000203002B01D1012367E0374B9B6823F0EC
:104FC00003027B685B68344913438B60FDF742FB47
:104FD000F8600AE0FDF73EFB0246FB68D31A41F297
:104FE0008832934201D903234FE02B4B9B6803F097
:104FF0000C027B685B689B009A42EBD1254B1B68D7
:1050000003F007033A689A420CD2224B3A68D2B2B4
:105010001A70204B1B6803F007033A689A4201D0CC
:10502000012332E07B681B6803F00403002B08D0E7
:10503000194B9B6823F4E0527B68DB6816491343E5
:105040008B607B681B6803F00803002B09D0124BB0
:105050009B6823F460427B681B69DB000E491343A5
:105060008B6000F021F802460B4B9B681B0903F094
:105070000F030A49CB5C22FA03F3094A1360094B78
:105080001B681846FDF7A2FA002318461037BD46E4
:1050900080BD00BF003C024000380240A071000803
:1050A00004000020080000202DE9B04F94B000AFAC
:1050B00000237B640023FB6400233B640023BB6468
:1050C000794B9B6803F00C03082B0DD0082B00F2E2
:1050D000E180002B02D0042B03D0DBE0734BBB64D8
:1050E000DBE0734BBB64D8E06F4B5B6803F03F03BE
:1050F0007B646D4B5B6803F48003002B63D06A4BC9
:105100005B689B090022BB63FA63BB6BC3F30803B4
:105110003B6300237B63D7E90C4522462B464FF0C7
:1051200000004FF00001590141EAD26150010246EE
:105130000B462146511A3961294663EB01037B6115
:105140004FF000024FF00003D7E904AB59468B0142
:10515000514643EA916351468A015146B2EB010838
:10516000594663EB01094FF000024FF000034FEA8C
:10517000C90343EA58734FEAC8029046994623464A
:1051800018EB0303BB602B4649EB0303FB604FF0B6
:1051900000024FF00003D7E9024529464B022146A1
:1051A00043EAD15321464A02104619467B6C00223D
:1051B000BB62FA62D7E90A23FBF75AF802460B46AC
:1051C0001346FB6458E0384B5B689B090022184685
:1051D0001146C0F308033B6200237B62D7E90889CC
:1051E00042464B464FF000004FF00001590141EAA2
:1051F000D261500102460B464146B2EB010A4946D4
:1052000063EB010B4FF000024FF000034FEA8B13EA
:1052100043EA9A634FEA8A12B2EB0A0463EB0B0586
:105220004FF000024FF00003EB0043EA5473E2003A
:1052300014461D464346E3183B604B4645EB0303CB
:105240007B604FF000024FF00003D7E9004529468C
:105250008B02214643EA915321468A0210461946A1
:105260007B6C0022BB61FA61D7E90623FBF700F8EB
:1052700002460B461346FB640B4B5B681B0C03F0AA
:10528000030301335B003B64FA6C3B6CB2FBF3F34A
:10529000BB6402E0054BBB6400BFBB6C18465037D3
:1052A000BD46BDE8B08F00BF003802400024F400C6
:1052B00000127A0080B400AF034B1B681846BD464D
:1052C0005DF8047B704700BF0400002080B500AF8C
:1052D000FFF7F0FF0246054B9B689B0A03F00703AC
:1052E0000349CB5C22FA03F3184680BD0038024024
:1052F000B071000880B500AFFFF7DCFF0246054B38
:105300009B685B0B03F007030349CB5C22FA03F3B2
:10531000184680BD00380240B071000880B582B0E8
:1053200000AF78607B68002B01D1012342E07B68ED
:1053300093F84130DBB2002B06D17B68002283F862
:1053400040207868FCF7FCFE7B68242283F841202B
:105350007B681B68DA687B681B6822F40052DA609D
:10536000786800F0D3FD7B681B681A697B681B684E
:1053700022F490421A617B681B685A697B681B683B
:1053800022F02A025A617B681B68DA687B681B6816
:1053900042F40052DA607B6800225A647B68202263
:1053A00083F841207B68202283F842207B6800221A
:1053B0005A63002318460837BD4680BD80B58AB0C1
:1053C00002AFF860B9603B601346FB8000237B614D
:1053D000FB6893F84130DBB2202B75D1BB68002B02
:1053E00002D0FB88002B01D101236EE0FB68002274
:1053F0005A64FB68212283F84120FDF72BF978617C
:10540000FB68FA889A84FB68FA88DA84FB689B68F0
:10541000B3F5805F08D1FB681B69002B04D1002322
:10542000FB61BB68BB6103E0BB68FB610023BB6140
:105430002EE03B6800937B6900228021F86800F031
:1054400037FB0346002B05D0FB68202283F8412060
:1054500003233AE0FB69002B0BD1BB691B881A467A
:10546000FB681B68C2F308025A60BB690233BB6168
:1054700007E0FB691A78FB681B685A60FB69013317
:10548000FB61FB68DB8C9BB2013B9AB2FB68DA8460
:10549000FB68DB8C9BB2002BCBD13B6800937B6914
:1054A00000224021F86800F003FB0346002B05D0E2
:1054B000FB68202283F84120032306E0FB682022BA
:1054C00083F84120002300E0022318462037BD4620
:1054D00080BD80B584B000AFF860B9601346FB8032
:1054E000FB6893F84230DBB2202B12D1BB68002B53
:1054F00002D0FB88002B01D101230BE0FB680022C6
:105500001A63FB881A46B968F86800F02AFB03465C
:1055100000E0022318461037BD4680BD80B5BAB002
:1055200000AF78607B681B681B68C7F8E4307B6855
:105530001B68DB68C7F8E0307B681B685B69C7F8ED
:10554000DC300023C7F8D8300023C7F8D430D7F8B0
:10555000E43003F00F03C7F8D830D7F8D830002B69
:105560000FD1D7F8E43003F02003002B09D0D7F88F
:10557000E03003F02003002B03D0786800F007FC34
:1055800073E2D7F8D830002B00F0DE80D7F8DC309B
:1055900003F00103002B06D1D7F8E03003F4907339
:1055A000002B00F0D180D7F8E43003F00103002B8A
:1055B0000BD0D7F8E03003F48073002B05D07B6864
:1055C0005B6C43F001027B685A64D7F8E43003F067
:1055D0000403002B0BD0D7F8DC3003F00103002BC1
:1055E00005D07B685B6C43F002027B685A64D7F895
:1055F000E43003F00203002B0BD0D7F8DC3003F0CB
:105600000103002B05D07B685B6C43F004027B68D0
:105610005A64D7F8E43003F00803002B11D0D7F810
:10562000E03003F02003002B05D1D7F8DC3003F085
:105630000103002B05D07B685B6C43F008027B689C
:105640005A647B685B6C002B00F00A82D7F8E43068
:1056500003F02003002B08D0D7F8E03003F020033C
:10566000002B02D0786800F092FB7B681B685B69B6
:1056700003F04003402B0CBF01230023DBB2C7F82B
:10568000D4307B685B6C03F00803002B03D1D7F8A0
:10569000D430002B4FD0786800F09DFA7B681B68EF
:1056A0005B6903F04003402B41D17B681B681433D6
:1056B000C7F89C30D7F89C3053E8003FC7F89830C3
:1056C000D7F8983023F04003C7F8D0307B681B68C8
:1056D0001433D7F8D020C7F8A820C7F8A430D7F8DB
:1056E000A410D7F8A82041E80023C7F8A030D7F8C5
:1056F000A030002BD9D17B68DB6B002B13D07B68EB
:10570000DB6B8A4A1A657B68DB6B1846FEF7D6FCB2
:105710000346002B16D07B68DB6B1B6D7A68D26B5F
:10572000104698470EE0786800F0ACF90AE0786817
:1057300000F0A8F906E0786800F0A4F97B68002280
:105740005A648DE100BF8BE17B681B6B012B40F03D
:105750006781D7F8E43003F01003002B00F060817C
:10576000D7F8E03003F01003002B00F0598100233C
:10577000BB607B681B681B68BB607B681B685B68E1
:10578000BB60BB687B681B685B6903F04003402B10
:1057900040F0CE807B68DB6B1B685B68A7F8BE308F
:1057A000B7F8BE30002B00F0A9807B689B8DB7F85E
:1057B000BE209A4280F0A2807B68B7F8BE20DA85CE
:1057C0007B68DB6BDB69B3F5807F00F088807B68EA
:1057D0001B680C33C7F88830D7F8883053E8003F8F
:1057E000C7F88430D7F8843023F48073C7F8B83012
:1057F0007B681B680C33D7F8B820C7F89420C7F82B
:105800009030D7F89010D7F8942041E80023C7F8DB
:105810008C30D7F88C30002BD9D17B681B681433BF
:105820007B677B6F53E8003F3B673B6F23F00103CF
:10583000C7F8B4307B681B681433D7F8B420C7F8B6
:105840008020FB67F96FD7F8802041E80023BB6711
:10585000BB6F002BE1D17B681B6814333B663B6E4A
:1058600053E8003FFB65FB6D23F04003C7F8B03001
:105870007B681B681433D7F8B020FA66BB66B96E34
:10588000FA6E41E800237B667B6E002BE3D17B68D8
:10589000202283F842207B6800221A637B681B6801
:1058A0000C33FB64FB6C53E8003FBB64BB6C23F020
:1058B0001003C7F8AC307B681B680C33D7F8AC20FA
:1058C000BA657B65796DBA6D41E800233B653B6D38
:1058D000002BE3D17B68DB6B1846FEF77FFB7B6810
:1058E00002225A637B689A8D7B68DB8D9BB2D31A48
:1058F0009BB21946786800F0CFF8B3E07B689B8DC7
:10590000B7F8BE209A4240F0AD807B68DB6BDB6964
:10591000B3F5807F40F0A6807B6802225A637B68E3
:105920009B8D1946786800F0B7F89BE09D5C0008F5
:105930007B689A8D7B68DB8D9BB2D31AA7F8CE303B
:105940007B68DB8D9BB2002B00F08E80B7F8CE30E9
:10595000002B00F089807B681B680C33BB63BB6B3A
:1059600053E8003F7B637B6B23F49073C7F8C83028
:105970007B681B680C33D7F8C8207A643B64396CA9
:105980007A6C41E80023FB63FB6B002BE3D17B685F
:105990001B6814337B627B6A53E8003F3B623B6ABF
:1059A00023F00103C7F8C4307B681B681433D7F8B1
:1059B000C4203A63FB62F96A3A6B41E80023BB6298
:1059C000BB6A002BE3D17B68202283F842207B68EE
:1059D00000221A637B681B680C333B613B6953E808
:1059E000003FFB60FB6823F01003C7F8C0307B6802
:1059F0001B680C33D7F8C020FA61BB61B969FA693A
:105A000041E800237B617B69002BE3D17B680222A4
:105A10005A63B7F8CE301946786800F03DF823E0B5
:105A2000D7F8E43003F08003002B09D0D7F8E0303A
:105A300003F08003002B03D0786800F040F914E0F5
:105A4000D7F8E43003F04003002B0ED0D7F8E03055
:105A500003F04003002B08D0786800F080F904E0E0
:105A600000BF02E000BF00E000BFE837BD4680BDD8
:105A700080B483B000AF786000BF0C37BD465DF8DE
:105A8000047B704780B483B000AF786000BF0C37F0
:105A9000BD465DF8047B704780B483B000AF78608A
:105AA0000B467B8000BF0C37BD465DF8047B70471A
:105AB00080B586B000AFF860B9603B601346FB71FB
:105AC0003BE03B6AB3F1FF3F37D0FCF7C3FD024632
:105AD0003B68D31A3A6A9A4202D33B6A002B01D13F
